:020000040800F2
:10000000180500209D010008DB2800086921000870
:10001000D9280008B50700080131000800000000D9
:10002000000000000000000000000000B12B0008EC
:10003000B707000800000000FD280008B32B0008E7
:10004000B7010008B7010008B7010008B7010008B0
:10005000B7010008B7010008B7010008B7010008A0
:10006000B7010008B7010008B7010008B701000890
:10007000B7010008B7010008B7010008B701000880
:10008000B7010008B7010008B7010008B701000870
:10009000B7010008B7010008B7010008B701000860
:1000A000B7010008B7010008B7010008B701000850
:1000B000B7010008B7010008B7010008792100085E
:1000C0006D210008B7010008B7010008B70100085A
:1000D000B7010008B7010008B7010008B701000820
:1000E000B7010008B7010008B7010008B701000810
:1000F000B7010008B7010008B7010008B701000800
:10010000B7010008B7010008B7010008B7010008EF
:10011000B7010008B7010008FD2B0008B70100086F
:10012000B7010008B7010008B7010008B7010008CF
:10013000B7010008B7010008B7010008B7010008BF
:10014000B7010008B7010008B7010008B7010008AF
:10015000B7010008B7010008B7010008B70100089F
:10016000B7010008B7010008B7010008B70100088F
:10017000B7010008B7010008B7010008000000003F
:10018000B7010008B7010008DFF80CD000F000FB51
:1001900000480047E1450008180500200648804750
:1001A00006480047FEE7FEE7FEE7FEE7FEE7FEE75C
:1001B000FEE7FEE7FEE7FEE7B92B0008890100082D
:1001C0002DE9F05F0546002092469B46884606468C
:1001D000814640241BE0284641464746224600F01F
:1001E00010FA53465A46C01A914110D31146184688
:1001F000224600F0F7F92D1A67EB01084F46224618
:100200000120002100F0EEF917EB00094E41201EFD
:10021000A4F10104DFDC484631462A46434600F09B
:1002200000B830BCBDE8C09F40EA01039B0703D083
:1002300009E008C9121F08C0042AFAD203E011F825
:10024000013B00F8013B521EF9D27047D2B201E0E7
:1002500000F8012B491EFBD270470022F6E710B5CB
:1002600013460A4604461946FFF7F0FF204610BD24
:100270002DE9FE4F804681EA0300C00F0C46009036
:1002800021F0004123F00045B8EB0200A94105D25E
:100290004046214690461C460B46024623F000404D
:1002A000104347D0270DC7F30A00C3F30A51029049
:1002B000401A019040286BDAC3F3130040F4801B0E
:1002C0000098924620B10023D2EB030A63EB0B0B9C
:1002D00001985946C0F14002504600F083F90646A5
:1002E0000D4650465946019A00F09BF910EB080064
:1002F0006141002487EA115284EAE7731A4340D02F
:10030000009A62B3019A012A4FEA075215DC001BDA
:1003100061EB02014FF0004202EA0752CDE90042D0
:10032000001C41F5801132462B4600F09BF903B0CA
:1003300000F045B840462146F9E7001B61EB020199
:10034000001C41F5801300185B412018A2F500172E
:1003500047EB030140EAD570B6196D4111E06D0815
:100360004FEA360645EAC0754FEA0752001B61EBBB
:100370000201001C41F5801149084FEA30000019C4
:10038000514132462B4603B000F01CB800F05BB977
:100390000098012240000023D0EB020263EBE073DF
:1003A000009821464FEAE074B8EB000061EB0401CD
:1003B000E9E783F000435BE781F0004158E730BC98
:1003C000BDE8C08F30BCBDE8C04FFFF7DFBF2DE9EF
:1003D000FE4F81EA030404F0004421F00041009440
:1003E0004FF0000B23F0004350EA01045ED052EAC4
:1003F00003045BD0C3F30A54C1F30A552C44A4F29E
:10040000F3340194A0FB0254C1F3130141F48011B1
:10041000C3F3130343F4801301FB024400FB034EB8
:10042000840A970A44EA815447EA8357A4FB076881
:1004300002958D0A05FB07854FEA932C04FB0C54AB
:100440002705029D4FEA065847EA1637B5EB08051F
:100450006EEB070C870E920E47EA811742EA831271
:10046000A7FB0201B6EB0B0164EB00042B0D43EA82
:100470000C335E1844EB1C50DA465146E7FB020190
:10048000C5F313044FEA0B3343EA14534FEA043223
:10049000019C43EA0603A4F10C040294009CCDE9FC
:1004A00000B400F0DFF803B000F003B8002001460C
:1004B000F9E730BCBDE8C08F2DE9F04D81EA0304B7
:1004C00004F0004B21F0004514464FF0000A23F0E1
:1004D000004150EA050220D054EA01021DD0C5F3C4
:1004E0000A570246C5F31303C1F31300C1F30A56BA
:1004F00040F4801543F48013A7EB0608101BD64682
:1005000008F2FD3873EB050002D308F1010801E0A1
:1005100092185B41B8F1000F03DA00200146BDE8F4
:10052000F08D00204FF48011064684460EE0171B24
:1005300073EB050705D3121B63EB050306434CEA77
:10054000010C49084FEA300092185B4150EA01075C
:10055000EDD152EA030012D082EA040083EA0501D9
:10056000084305D0101BAB4106D20122002306E050
:1005700000224FF0004302E06FF0010253101AEB2B
:1005800006004CEB085110EB0A0041EB0B01BDE8F3
:10059000F04D00F058B80EB5C10F80EAE070084485
:1005A000CA07002140F233438DE80E000A460B468D
:1005B00000F058F803B000BD30B50B4601460020EE
:1005C0002022012409E021FA02F59D4205D303FA15
:1005D00002F5491B04FA02F52844151EA2F1010296
:1005E000F1DC30BD202A04DB203A00FA02F10020C1
:1005F00070479140C2F1200320FA03F31943904061
:100600007047202A04DB203A21FA02F000217047CB
:1006100021FA02F3D040C2F120029140084319466A
:100620007047202A06DBCB17203A41FA02F043EA52
:10063000E07306E041FA02F3D040C2F1200291409B
:1006400008431946704710B5141E73F1000408DA08
:10065000401C41F1000192185B411A4301D120F086
:10066000010010BD2DE9F04D92469B4611B1B1FA43
:1006700081F202E0B0FA80F220329046FFF7B2FF3A
:1006800004460F4640EA0A0041EA0B0153465A4627
:10069000084313D0114653EA010019D0C8F14002B3
:1006A0005046FFF7AEFF05460E46504659464246B5
:1006B000FFF798FF084305D0012004E020463946A3
:1006C000BDE8F08D0020054346EAE0762C43374331
:1006D0000A986305E40AA0EB08000022FD0A44EA38
:1006E00047540A3002D500200146E9E701051019F8
:1006F0006941DDE9084500196941BDE8F04DA2E70F
:10070000C1F30A52C1F3130140F2FF3341F48011E7
:100710009A4202DA00200146704740F233439A427F
:10072000A2F2334202DC5242FFF76BBFFFF75ABF1F
:1007300030B5041E71F1000404DB4FF00044404268
:1007400064EB0101141E73F1000405DB1C464FF03D
:100750000043524263EB04038B4208BF824230BD28
:1007600030B5041E71F1000404DB4FF00044404238
:1007700064EB0101141E73F1000405DB1C464FF00D
:100780000043524263EB0403994208BF904230BDDC
:10079000064C074D06E0E06840F0010394E80700CE
:1007A00098471034AC42F6D3FFF7F2FC78480008C3
:1007B00098480008FEE7704710B590F8251000240F
:1007C000022903D00421C16301241AE001680A68E8
:1007D00022F00E020A6001680A6822F001020A6033
:1007E00090F84410036C01F01C02012101FA02F29E
:1007F0005A6080F82510002180F82410816B01B127
:100800008847204610BD70B5044600F0F5F805464F
:10081000601C00D0641C00F0EFF8401BA042FAD32B
:1008200070BD00002DE9F84FDFF898B100234FF0BC
:10083000010C4FF0030A4FF00F090BF1040EB9E061
:100840000CFA03F4224070D04D68022D01D0122D15
:100850000ED1DD0800EB8508D8F820505E07F70EB2
:1008600009FA07F6B5430E69BE402E43C8F820606A
:1008700007685E0091F804800AFA06F508F003089C
:10088000AF4308FA06F848EA0708C0F800804F6846
:10089000012F05D0022F03D0112F01D0122F13D119
:1008A000D0F80880CF6828EA0508B74047EA08076B
:1008B0008760D0F804800F7928EA0408C7F300178E
:1008C0009F4047EA08074760D1F804806FEA0807AD
:1008D000BF0706D1C76AA743C8F3C0049C403C4386
:1008E000C462C468AC438D68B5402543C5604C689C
:1008F000E4005ED5344C256E45F001052566246E76
:1009000023F0030504F001040094304C2E19B46860
:100910009D072F0F09FA07F5AC43B0F1904F05D0B2
:100920002B4DA84204D101251CE042E0002519E02E
:10093000284DA84201D1022514E0274DA84201D13B
:1009400003250FE0254DA84201D104250AE0244DDE
:10095000A84201D1052505E0224DA84201D1062576
:1009600000E00725BD402543B560DBF800405D464B
:100970004E689443F60300D514432C60DEF8004023
:1009800075464E689443B60300D514432C600D4D54
:1009900008352C684E689443F60200D514432C6049
:1009A000084D0C352C684E689443B60200D51443AC
:1009B0002C605B1C0A6832FA03F57FF441AF00F04B
:1009C00013B8000000040140001002400000014084
:1009D0000004004800080048000C004800100048CF
:1009E000001400480018004818BCBDE8E08F0AB1A8
:1009F000816170478162704701480068704700005C
:100A00000400002090F84120202A24D190F84020B2
:100A1000012A20D0012280F84020242280F84120A1
:100A20000268136823F0010313600268136823F45B
:100A300080531360026813680B43136001680A68EF
:100A400042F001020A60202180F84110002180F864
:100A50004010084670470220704790F84120202A35
:100A600022D190F84020012A1ED0012280F8402097
:100A7000242280F841200268136823F001031360E8
:100A80000268136823F4706343EA0121116001686E
:100A90000A6842F001020A60202180F8411000211A
:100AA00080F8401008467047022070477047704732
:100AB00030B403689A691968D243D40509D4CC4389
:100AC000240606D4446C44F0010444644FF480745A
:100AD000DC6153050AD4CB431B0607D4436C43F0B7
:100AE0000803436404684FF48063E36192050AD409
:100AF000C943090607D4416C41F002014164026810
:100B00004FF40071D161416C11F00B0F02D030BC79
:100B100001F0CCBB30BC7047026891691268436B2E
:100B2000002B00D0184770477047000070B50400D4
:100B300004D094F84100002510B106E0012070BDFA
:100B400084F84050204600F0C5FA242084F8410083
:100B50002068016821F0010101606068216820F0CF
:100B6000706008612068816821F400418160E0685C
:100B70000128A06807D040F4044021688860E0683C
:100B8000022803D006E040F40040F6E721684FF465
:100B90000060486020684168114A11434160206844
:100BA000C16821F40041C160D4E904010843A1698E
:100BB00040EA01202168C860D4E9070108432168A0
:100BC00008602068016841F001010160656420202F
:100BD00084F84100256384F84250002070BD000075
:100BE000008000022DE9FC4700260446019690F89B
:100BF00041001F469246894620287ED120688069A0
:100C0000C043000479D594F84000012875D0012034
:100C100084F84000242084F8410066644FF02008E6
:100C2000E068012809D029F4544040F4205021689C
:100C30004860FFF7E1FE05460DE0314949EA010051
:100C400030490840F3E7781C05D0FFF7D5FE401B7C
:100C5000B84219D8C7B1216888698969C0F34010C2
:100C6000C1F300110843EED0206880693B46C043C1
:100C7000C0064FF000024FF020012046009517D526
:100C800001F06EFD68BB09E084F8418054F8440F20
:100C900040F0200044F80409267022E02168C1F8E1
:100CA0001C8084F8418084F84060002000F02CB85B
:100CB00001F056FDA8B921681020C8612168C1F86B
:100CC0001C800198504512D12068416841F4804150
:100CD00041603B46002220212046009501F040FD66
:100CE00010B10120E2E708E02168C1F81C800198FA
:100CF000401C0190504593D3C6E70220D6E7000080
:100D000000200002FF2300020CBCBDE8F087704702
:100D10002DE9F84F044690F84100DDF828A01F4661
:100D200090468B4620287ED194F8400001287AD046
:100D3000012084F84000FFF75FFE06460122009084
:100D40001923D103204601F00BFDE0BB222084F8DB
:100D50004100102084F8420000256564C4F8248016
:100D600067856563618D3148FF274FF080784FF0CC
:100D70000079FF2903D927853A46009039E0618D33
:100D8000218500903AE05946204601F0D3FC13E05B
:100D900001F012FDB8B92068406A616A0870606AA3
:100DA000401C6062208D401E80B22085618D491EEE
:100DB0006185618D01B168B1608D32460028514670
:100DC0002046E5D100E002E001F038FDD0B101207D
:100DD00000F030B85346002280212046009601F0F2
:100DE000BFFC0028F3D1608DFF2804D927853A463F
:100DF00000954346C7E7608D2085009594F828202C
:100E00004B46C0E721682020C86121684A68084B2A
:100E10001A404A6084F8410084F8425084F84050F7
:100E20000020D5E7FFE70220D2E700000024008081
:100E300000E800FE18BCBDE8E08F00002DE9F84F87
:100E4000044690F84100DDF828A01F4690468B46E6
:100E500020287ED194F8400001287AD0012084F81F
:100E60004000FFF7C9FD0646012200901923D10377
:100E7000204601F075FCE0BB212084F841001020E1
:100E800084F8420000256564C4F8248067856563A2
:100E9000618D3148FF274FF080784FF00079FF29AE
:100EA00003D927853A46009039E0618D218500906D
:100EB0003AE05946204601F03DFC13E001F0E4FC25
:100EC000B8B9606A216800788862606A401C606214
:100ED000608D401E6085208D401E80B22085618D12
:100EE00001B168B1608D3246002851462046E5D1F7
:100EF00000E002E001F0A2FCD0B1012000F030B827
:100F00005346002280212046009601F029FC00284B
:100F1000F3D1608DFF2804D927853A4600954346D2
:100F2000C7E7608D2085009594F828204B46C0E7E0
:100F300021682020C86121684A68084B1A404A602D
:100F400084F8410084F8425084F840500020D5E7EE
:100F5000FFE70220D2E700000020008000E800FE4A
:100F600018BCBDE8E08F00002DE9FF4F83B00446B8
:100F7000DDE9108790F84100DDF848909A469346E5
:100F8000202874D15FEA080014D09FB194F8400083
:100F900001286CD0012084F84000FFF72DFD0646A3
:100FA000012200901923D103204601F0D9FB00282B
:100FB00071D103E04FF4007060646CE0222084F88B
:100FC0004100402084F8420000256564C4F8248074
:100FD00067856563CDE9009653465A4620460499D5
:100FE00001F0E6FA10B184F8405054E0618D3548C4
:100FF000FF274FF080784FF0007AFF2904D927852A
:101000003A464346009005E0618D2185009094F8B2
:10101000282053462046049901F08CFB4B460022C1
:1010200004212046009601F09BFBA0BB2068406A8B
:10103000616A0870606A401C6062208D401E81B247
:101040002185608D401E6085608DD8B1D1B94B4639
:10105000002280212046009601F082FBD8B9608DE5
:10106000FF2805D927853A464346009506E026E045
:10107000608D2085009594F82820534620460499D9
:1010800001F058FB608D0028C8D132464946204601
:1010900001F0D4FB18B1012007B000F017B82168A7
:1010A0002020C86121684A68074B1A404A6084F8CA
:1010B000410084F8425084F840500020ECE70220C0
:1010C000EAE700000024008000E800FE30BCBDE834
:1010D000C08F000010B586B0044614216846FFF7A3
:1010E000BCF81A49206888422ED1194CE06C40F0B7
:1010F0000200E064E06C694600F002000590C02048
:1011000000901220019001200290032003900420FF
:1011100004901048FFF786FBA06D40F40010A06516
:10112000A06D002200F40010059011461F2000F071
:1011300067F81F2000F058F800221146202000F028
:101140005FF8202000F050F806B010BD00540040B9
:1011500000100240000400487047704702480168D0
:10116000491C0160704700000400002010B50024F5
:10117000032000F065F8002000F008F808B1012411
:1011800001E000F01BF8204610BD000070B50546D8
:1011900009484FF47A7100240068B0FBF1F000F0C8
:1011A000A9FD08B1012404E000222946501E00F0E8
:1011B00027F8204670BD000008000020094808B547
:1011C000016E41F001010166016E01F00101009123
:1011D000816D41F080518165806D00F080500090FC
:1011E00008BD00000010024000F01F0201219140E4
:1011F0004009800000F1E020C0F8001170470000B5
:10120000F0B40E4B1B680C46C3F30223C3F1070571
:10121000042D00D90425191D072901D2002300E05F
:10122000DB1E012606FA05F1491E214099409E4029
:10123000761E16403143F0BC01F050BB0CED00E0CF
:10124000064900F0070208684FF6FF03184040EA1D
:101250000220034A10430860704700000CED00E0D4
:101260000000FA051649B0F5007F0868C0F3412078
:1012700009D0022805D0086820F4C06040F48060DE
:101280000860002070470128FBD0086820F4C06087
:1012900040F4007008600B483222006850430A4A4C
:1012A000B0FBF2F0401C00E0401E4A69520501D537
:1012B0000028F9D148694005E3D5032070470000B4
:1012C000007000400800002040420F000248006803
:1012D00000F4C06070470000007000402DE9F84F36
:1012E000044600270088E54D3E46010504F1200B29
:1012F0001DD5606E78B1B0F5800F11D0B0F5000F3C
:1013000004D0B0F5400F22D001270FE0E86840F488
:101310008030E8601BE00021201D01F0F1FA03E0BD
:101320000021584601F082FB070010D03E4620887D
:10133000C00426D5A06EC0B1B0F1807F1AD0B0F144
:10134000007F0DD0B0F1407F19D0012718E0D5F80B
:101350008800616E20F440000843C5F88800E6E785
:10136000E86840F48030E86009E00021201D01F0C9
:10137000C7FA03E00021584601F058FB0746F7B1D1
:101380003E46206880033AD5A86D4FF00008C000A3
:1013900009D4A86D40F08050A865A86D4FF00108F1
:1013A00000F080500090DFF8D8A2DAF8001041F485
:1013B0008071CAF80010FFF71FFB814610E0D5F8D6
:1013C0008800A16E20F040700843C5F88800D8E777
:1013D000FFF712FBA0EB0900022801D9032705E063
:1013E000DAF80000C005F3D5002F7CD04FEA0706DD
:1013F000B8F1000F03D0A86D20F08050A8652078C8
:10140000C00707D0D5F88800A16B20F0030008437F
:10141000C5F888002078800707D5D5F88800E16BEB
:1014200020F00C000843C5F888002078400707D555
:10143000D5F88800216C20F030000843C5F88800FA
:101440002078000707D5D5F88800616C20F0C0002F
:101450000843C5F888002078C00607D5D5F888006D
:10146000A16C20F440700843C5F8880020788006FD
:1014700007D5D5F88800E16C20F440600843C5F832
:1014800088002088800507D5D5F88800E16D20F414
:1014900040200843C5F888002088400507D5D5F8C6
:1014A0008800216E20F440100843C5F88800207899
:1014B000400607D5D5F88800216D20F44050084338
:1014C000C5F888002078000607D5D5F88800616D3A
:1014D00020F440400843C5F888002088C00509D59D
:1014E000D5F8880000E01CE0A16D20F440300843EE
:1014F000C5F8880020884FF0006780044FF08068AE
:101500004FD5D5F88800E16E20F040600843C5F85B
:101510008800E06EB8423CD1E86840F48010E86092
:101520003FE0D5F8900010F4407015D0D4F8841046
:10153000814211D0D5F89000D5F8901020F4407079
:1015400041F48031C5F89010D5F8901021F4803125
:10155000C5F89010C5F89000C00710D0FFF74CFAFE
:10156000074641F2883906E0FFF746FAC11B4945B4
:1015700001D903263CE7D5F890008007F4D5D5F8CB
:101580009000D4F8841020F440700843C5F890000F
:101590002EE7404505D10121201D01F0B1F900B130
:1015A00006462068000317D5D5F88800216F20F083
:1015B00040600843C5F88800206FB84204D1E8684D
:1015C00040F48010E86007E0404505D10121201D6E
:1015D00001F096F900B106462068400317D5D5F80A
:1015E0008800616F20F040600843C5F88800606F94
:1015F000B84204D1E86840F48010E86007E0404554
:1016000005D10121201D01F07BF900B1064620889B
:1016100040041AD5D5F88800A16F20F04050084347
:10162000C5F88800A06FB0F1805F03D0B0F1005F13
:1016300005D00AE00221201D01F062F903E0022139
:10164000584601F0F3F900B106462088000407D59A
:10165000D5F88800E16F20F080400843C5F8880085
:101660002068C00307D555F8880FD4F8801020F003
:10167000004008432860304600F004B800100240E3
:101680000070004018BCBDE8E08F00002DE9F04775
:101690000F46050058D03F4E306800F00700B842B2
:1016A00009D2306820F0070038433060306800F01D
:1016B0000700B84248D12878374CC0072CD068685A
:1016C000032811D0022812D0216898B149050029B9
:1016D0003ADAA16821F003010143A160FFF78CF918
:1016E000804641F2883910E021688901EFE72168DE
:1016F0008903ECE78907EAE7FFF77EF9A0EB080129
:10170000494502D90320BDE8F087A068696800F068
:101710000C00B0EB810FEFD12878800705D5A068C9
:10172000A96820F0F0000843A060306800F00700CE
:10173000B8420BD9306820F0070038433060306879
:1017400000F00700B84201D00120DCE7287840070C
:1017500005D5A068E96820F4E0600843A060287817
:10176000000706D5A068296920F4605040EAC1004E
:10177000A06000F03BF8A168084AC1F30311515C76
:1017800001F01F01C84006490860BDE8F04700208D
:10179000FFF7FCBC0020024000100240EC470008AC
:1017A000080000200548064900688968054AC1F319
:1017B0000221515C01F01F01C84070470800002061
:1017C000001002402C480008054806490068896856
:1017D000054AC1F3C221515C01F01F01C8407047A6
:1017E00008000020001002402C48000870B5254970
:1017F000002318468A68CC6812F00C0204F0030635
:10180000214C4FEA640509D00C2A05D0042A26D0C1
:10181000082A00D1284670BD012E10D10B681B0785
:1018200004D4D1F89430C3F3032302E00B68C3F36C
:101830000313164E56F823307AB10C2AEBD1C86840
:1018400000F00302C868C0F30210401C022A08D04E
:10185000032A09D0B3FBF0F008E0184670BD20461B
:1018600070BDB4FBF0F001E0B5FBF0F0CA68C968E8
:10187000C2F306225043C1F34161491C4900B0FB49
:10188000F1F070BD001002400024F400FC47000895
:101890002DE9F84305007CD0FD4CA06800F00C0653
:1018A000E06800F003072878C00661D576B10C2EF9
:1018B00001D1012F0AD0A8690028206878D040F013
:1018C00001002060FFF798F8804659E02068800703
:1018D00002D5A8690028DED0286A2168090703D547
:1018E000216801F0F00104E0D4F89410F02202EA3B
:1018F0001111884215D901F01DF9002849D120683D
:1019000040F0080020602068296A20F0F0000843B9
:1019100020606068E96920F47F4040EA012060604F
:1019200015E0206840F0080020602068296A20F057
:10193000F000084320606068E96920F47F4040EAD5
:1019400001206060286A01F0F5F80028D6D1FFF781
:101950004DFFA168CF4AC1F30311515C01F01F0193
:10196000C840CD4908600020FFF710FC00287DD159
:101970002FE000BFFFF740F8A0EB0800022876D860
:1019800020688007F6D5206840F0080020602068B5
:1019900001E0BBE00CE0296A20F0F0000843206081
:1019A0006068E96920F47F4040EA0120606010E04F
:1019B00020F001002060FFF71FF8804606E000BF1E
:1019C000FFF71AF8A0EB08000228D8D82068800793
:1019D000F6D42878C00740D0082E18D00C2E01D19C
:1019E000032F14D06868B0F5803F17D0B0F5A02F52
:1019F000206817D020F480302060206820F48020F8
:101A000020606868E0B1FEF7F7FF804614E02068C8
:101A1000800322D56868002878D01EE0206840F452
:101A20008030EDE740F480202060F7E7FEF7E4FF28
:101A3000A0EB08006428A2D820688003F6D50CE04B
:101A4000FEF7DAFF804605E0FEF7D6FFA0EB0800C0
:101A5000642894D820688003F6D4287880073BD582
:101A6000042E11D00C2E04D1022F01E036E1A1E0AA
:101A70000AD0E868002820681ED040F480702060FA
:101A8000FEF7BAFF07460CE0206840050CD5E86871
:101A90000028C1D008E000BFFEF7AEFFC01B02283F
:101AA00093D820684005F7D56068297C20F0F8506D
:101AB00040EA016060600FE020F480702060FEF773
:101AC0009BFF074605E000BFFEF796FFC01B0228FC
:101AD00070D820684005F7D42878000729D56869B0
:101AE0000028D4F8940012D040F00100C4F894000B
:101AF000FEF782FF074604E0FEF77EFFC01B0228C8
:101B000058D8D4F894008007F6D512E0EDE020F024
:101B10000100C4F89400FEF76FFF074605E000BF20
:101B2000FEF76AFFC01B022844D8D4F8940080074F
:101B3000F6D42878400768D5A06D0027C00008D4E7
:101B4000A06D40F08050A065A06D012700F080508E
:101B5000009052480168C90512D40168814641F4D9
:101B600080710160FEF748FF804605E0FEF744FF04
:101B7000A0EB080002281DD8D9F80000C005F5D553
:101B8000A868012817D00528D4F8900018D020F0B4
:101B90000100C4F89000D4F8900020F0040000BFC9
:101BA000C4F89000A86841F28839D0B1FEF724FF4C
:101BB000804611E06BE0D4F8900040F00100EFE7C0
:101BC00040F00400C4F89000F5E700BFFEF714FFF2
:101BD000A0EB080149455AD8D4F890008007F5D504
:101BE0000EE0FEF709FF804606E000BFFEF704FFA7
:101BF000A0EB0801494570D8D4F890008007F5D4CF
:101C00001FB1A06D20F08050A065A86AF0B30C2E23
:101C10006BD00228206820F08070206004D02068FB
:101C200010F0205F47D04AE0FEF7E6FE064604E0EB
:101C3000FEF7E2FE801B02284FD820688001F7D40F
:101C4000286BE96A000110380843696BAA6B090226
:101C5000120941EA42410843A98F114A490802EB9F
:101C60004151084395F840104908120102EB4161C7
:101C70000843E060206840F080702060E06840F039
:101C80008070E060FEF7B8FE054610E02BE024E02F
:101C900000100240EC4700080800002000700040DF
:101CA0000000E0FFFEF7A8FE401B022815D82068C0
:101CB0008001F7D517E0E06820F00300E060E068FD
:101CC0000B490840E060FEF797FE054608E000BFBC
:101CD000FEF792FE401B022802D90320BDE8F883DC
:101CE00020688001F4D40020F8E70120F6E7000026
:101CF000FFFFEEFE10B5401EB0F1807F01D3012042
:101D000010BD4FF0E02460610F21601700F0E6FD88
:101D10000020A06107202061002010BD704770479F
:101D20007047000070B590F83C20012A24D00124AF
:101D300080F83C40022280F83D2002685368956894
:101D40000E4EB24202D00E4EB24203D123F47006C0
:101D50004B68334323F070060B688968334325F0E2
:101D60008005294353600268916080F83D4000215E
:101D700080F83C10084670BD022070BD002C014068
:101D80000034014010B5040003D094F83D0010B1B8
:101D900007E0012010BD002084F83C00204600F040
:101DA0000DF8022084F83D00211D206800F034FF6A
:101DB000012084F83D00002010BD000008B5006837
:101DC0000B49884212D10B48816D41F010018165A9
:101DD000806D002200F01000009011463620FFF7C1
:101DE0000FFABDE808403620FFF7FEB908BD000035
:101DF0000010004000100240022180F83D100168F0
:101E00008B68094A1340062B08D08B681340B3F542
:101E1000803F03D00A6842F001020A60012180F885
:101E20003D10002070470000070001000168CA68EB
:101E300042F00102CA600068826807490A40062A27
:101E400008D082680A40B2F5803F03D0016841F0B3
:101E5000010101600020704707000100704770B564
:101E60000446006801694FF00005C943890715D48D
:101E7000C168C943890711D4E91E01610120207797
:101E8000206880698007204602D0FFF7E7FF04E062
:101E900000F0A7F8204600F0A5F825772068016932
:101EA000C943490717D4C168C943490713D46FF020
:101EB00004010161022020772068806910F4407FCE
:101EC000204602D0FFF7CAFF04E000F08AF820465F
:101ED00000F088F8257720680169C943090716D4FE
:101EE000C168C943090712D46FF0080101610420D9
:101EF00020772068C0698007204602D0FFF7AEFF38
:101F000004E000F06EF8204600F06CF825772068B9
:101F10000169C943C90617D4C168C943C90613D4A6
:101F20006FF010010161082020772068C06910F46B
:101F3000407F204602D0FFF791FF04E000F051F807
:101F4000204600F04FF8257720680169C943C9078A
:101F500008D1C168C943C90704D1891E016120465F
:101F600000F041F820680169C943090609D4C16835
:101F7000C943090605D46FF0800101612046FFF7CF
:101F8000CEFE20680169C943C90509D4C168C943A7
:101F9000090605D46FF4807101612046FFF7BEFE8B
:101FA00020680169C943490609D4C168C943490683
:101FB00005D46FF040010161204600F015F820685B
:101FC0000169C94389060BD4C168C943890607D48E
:101FD0006FF0200101612046BDE87040FFF7A0BE10
:101FE00070BD704770477047704710B5040003D04C
:101FF00094F8710010B107E0012010BD002084F8B2
:102000007000204600F026F8242084F87100206833
:10201000016821F001010160204600F0EFFE012877
:10202000EBD0606A10B1204600F056FE206841688F
:1020300021F4904141602068816821F02A0181608B
:102040002068016841F0010101602046BDE81040B0
:1020500000F0A6BE10B586B0044614216846FEF70F
:10206000FCF81249206888421ED11148816D41F464
:1020700000318165816D01F400310591C16C41F041
:102080000801C164C06C694600F00800059060203A
:10209000009002200190002002900320039007206E
:1020A00004900448FEF7BEFB06B010BD004400409B
:1020B00000100240000C00482DE9F843044690F857
:1020C00071001F4616460D4620284BD1C5B1BEB142
:1020D00094F87000012845D0012084F870004FF07A
:1020E0000008C4F87480212084F87100FEF784FC95
:1020F000A4F850608146A4F852604FF4805615E071
:102100000120BDE8F8838021204600F0C7FFD8B940
:10211000A068B04201D12069C0B115F8010B216857
:102120000885B4F85200401EA4F85200B4F85200DA
:102130004B464FF0000200970028E4D14FF04001D9
:10214000204600F0ABFF30B10320DAE735F8020B90
:10215000C0F30800E3E7202084F8710084F8708061
:102160000020CEE70220CCE7FEE700000148FEF7A2
:102170009FBC0000140000200148FEF7CDBC000009
:102180001400002010B5806A0021826B9163C26B3D
:10219000916390F84110602902D0FEF7C5FC10BD94
:1021A000202180F84110FEF781FC10BD10B50022FF
:1021B000CC074FF0280306D090F84140422233EA82
:1021C000040400D0F2228C0707D590F8414042F079
:1021D0004402A34301D042F0B0024B0701D542F0C4
:1021E000B80211238B4301D142F0900212238B439A
:1021F00001D142F06002006801689143016010BDA6
:1022000001688A69D243920701D400228A62006879
:102210008169C943C90703D0816941F00101816126
:1022200070472DE9F041044690F841002821814390
:1022300020684FF000054FF0080304D0C36184F814
:102240004050BDE8F0818169C1F300478169FE22F9
:1022500002EA11468168C1F30902C168D4F80CC0D2
:1022600001F0FE01BCF1020F17D14FF0060C06F091
:1022700006060CEAD21C66450ED1A16C491CA1646D
:10228000A16C0229DDD1A564C36184F840503946B0
:102290002046FEF70CFCD4E70E4604212046FFF74B
:1022A00085FF84F840503246F1E7000070B50446DF
:1022B00090F84100002584F84250314AE262658579
:1022C000626C0A4362642026282825D0292823D05E
:1022D0002A2821D007212046FFF768FF94F8410003
:1022E000602801D084F84160256365632068016837
:1022F0004A04244902681AD522F480420260A06B85
:10230000002833D0816384F84050A06BFEF754FA64
:1023100000282BD0A06B1CE003212046FFF746FFCE
:10232000282084F84100256317486063DEE7120423
:1023300013D5026822F400420260E06B002815D039
:10234000816384F84050E06BFEF736FA00280DD028
:10235000E06B816BBDE87040084794F8410060284D
:1023600005D084F840502046FEF7DEFB70BD84F8AF
:10237000416084F840502046FEF798FB70BD000095
:102380000000FFFF852100081526000870B50446EF
:102390001548E06200252563202084F8410084F878
:1023A0004250C8436563400711D42068406A616A9F
:1023B0000870606A401C6062208D40B1401E20851C
:1023C000608D401E6085606C40F0040060640721F1
:1023D0002046FFF7EBFE21681020C86184F84050CA
:1023E0002046FEF794FC70BD0000FFFF2DE9F04190
:1023F000044600680E4607682025C561216808204C
:10240000C86107212046FFF7D1FE2068416841F4EA
:1024100000414160206841682D4A114041602046DA
:10242000FFF7EEFEF843410401D4A06B02E0000484
:1024300004D4E06B10B1006840686085F043400749
:102440000DD42068406A616A0870606A401C60624E
:10245000208D20B1401E2085608D401E6085608DDE
:1024600018B1606C40F0040060640020206384F8C0
:1024700042006063616C69B1616C2046FFF716FF32
:1024800094F84100282811D131462046BDE8F0419A
:10249000FFF77CBFE26A0F498A4209D0E16284F803
:1024A000415084F840002046FEF731FCBDE8F08141
:1024B00094F8411084F84150222984F840002046C5
:1024C00002D0FEF74AFEF1E7FEF746FEEEE7000017
:1024D00000E800FE0000FFFF70B50025044680F80C
:1024E000425090F841102820292911D094F8411029
:1024F0002A290CD184F841002220206302212046A1
:10250000FFF754FE84F840502046FEF725FE70BDCC
:1025100084F841002120206301212046FFF746FE78
:1025200084F840502046FEF718FE70BD2DE9F041BA
:102530000446006890460E468069C043C00633D406
:102540000025202720688069C043800615D5701CAF
:10255000F8D0FEF751FAA0EB0800B04201D8002EE7
:10256000F0D154F8440F40F0200044F8040967709B
:10257000A57025700120BDE8F08121681020C86198
:102580002068C7612046FFF73BFE54F8440B4168C2
:10259000064A11404160206840F0040044F82009D8
:1025A0006777A5772577E5E70020E4E700E800FEF8
:1025B0002DE9F84304461646DDE908971448984685
:1025C000DAB200900023204600F0B4F83A464946BB
:1025D000204600F059F9B8B9F5B2B8F1010F08D0AA
:1025E0002168300A88623A464946204600F04CF994
:1025F00050B9206885624B46002240212046009752
:1026000000F0AEF8002800D00120BDE8F8830000FB
:10261000002000802DE9F0410446C06A0F4694F87E
:10262000401001291DD0012184F84010FE43404B89
:10263000F1064FF0807C6FEA020531D4E9062FD411
:10264000628D102182B12268D161616C41F0040178
:10265000616408B160455ED1616C2046FFF726FEDB
:1026600059E00220BDE8F08194F84120282A02D1E7
:10267000B0F1007F04D094F84120292A05D00CE065
:1026800039462046FFF782FE45E0984205D0206893
:10269000C1612046FFF7B4FD3AE02068C1613AE02D
:1026A000710715D4690713D4618D61B12168496A36
:1026B000626A1170616A491C6162218D491E21851F
:1026C000618D491E6185618D29BB984220D122E030
:1026D000310706D4290704D439462046FFF7A1FD67
:1026E00019E0B10717D4A90715D4618D69B1606AE3
:1026F000216800788862606A401C6062608D401EBC
:102700006085208D401E208505E0604500D010B911
:102710002046FFF7E1FEB00605D4A80603D43946EB
:102720002046FFF763FE002084F840009AE700008F
:102730000000FFFFF0B50568059C68684FF48066EF
:10274000064FC1F3090106EA545641EA02413E43ED
:102750001943B043214308436860F0BDFF63FF03A2
:102760002DE9F0411D4617460E460446DDF8188057
:1027700008E0681C06D0FEF73FF9A0EB0800A8426D
:102780000BD855B12068806936EA000012D00020CD
:10279000B842EED00020BDE8F08154F8440F40F07C
:1027A000200044F80409202060700020A0702070F0
:1027B0000120F0E70120EBE72DE9F04100269046EB
:1027C0000F460446202525E0424639462046FFF7BD
:1027D000ADFE78BB20688069C043800613D42068B2
:1027E0008169C943490701D4218DC1B9C56154F834
:1027F000440B4168104A1140416044F820696577F4
:10280000A677267716E0FEF7F7F8A0EB0800B842A7
:1028100008D83FB120688069C0434007D4D4002065
:10282000BDE8F08154F8440F40F0200044F804095A
:10283000657026700120F3E700E800FE70B51646CB
:102840000D4604460DE0324629462046FFF76EFE4F
:1028500008B1012070BDFEF7CFF8801BA84207D851
:1028600035B120688069C0438006ECD4002070BD7B
:1028700054F8440F40F0200044F804092020607010
:102880000020A0702070E4E770B516460D4604469F
:102890000FE0324629462046FFF748FE08B10120E6
:1028A00070BD681C05D0FEF7A7F8801BA84207D8AA
:1028B00035B120688069C0438007EAD4002070BD2C
:1028C00054F8440F40F0200044F8040920206070C0
:1028D0000020A0702070E2E7FEE770470907090EAC
:1028E000002806DA00F00F0000F1E02080F8141D47
:1028F000704700F1E02080F8001470477047000036
:102900002DE9F041444C05468846E06800268107E1
:1029100028680DD0E16801F00301814216D1A8B109
:10292000E0686968C0F30210401C88420ED120E0C4
:10293000012804D0022805D0032807D108E0216827
:10294000890701E021684905002907DB01265FE0CE
:102950002168890302D421684903F5E7E1686A68C0
:102960006FF00F0321F0730103EB021211430143D7
:10297000E160206820F080602060FEF73DF80746A7
:1029800005E000BFFEF738F8C01B022837D82068E2
:102990000001F7D4B8F1000F18D0B8F1010F1ED024
:1029A000287D4FF07E41400801EB4060A96840EA75
:1029B00001202169194A114008432061206840F034
:1029C00080602060FEF718F807461AE0A868E968FA
:1029D0000002090940EA41402169114AEBE7288ACF
:1029E0001049400801EB4050A96840EA01202169E4
:1029F0000D4AE0E7FEF700F8C01B022801D90326C4
:102A000006E020680001F5D52069A9690843206126
:102A10003046BDE8F081000000100240FF80FFF961
:102A2000FF80FDFF0000E0FFFF809FFF2DE9F041E8
:102A30003D4C06468846E0680025810730680DD089
:102A4000E16801F00301814216D1A8B1E068716824
:102A5000C0F30210401C88420ED120E0012804D0AF
:102A6000022805D0032807D108E02168890701E082
:102A700021684905002907DB012551E02168890308
:102A800002D421684903F5E7E16872686FF00F032B
:102A900021F0730103EB021211430143E16020684E
:102AA00020F080502060FDF7A7FF074605E000BF3B
:102AB000FDF7A2FFC01B022829D820688000F7D4A8
:102AC000B8F1000F15D0307C4FF07E41400801EB8B
:102AD0004060B16840EA01206169144A114008432E
:102AE0006061206840F080502060FDF785FF074658
:102AF0000FE0B068F1680002090940EA41406169ED
:102B00000B4AEBE7FDF778FFC01B022801D903252C
:102B100006E020688000F5D560697169084360614E
:102B20002846BDE8F081000000100240FF80FFF958
:102B3000FF80FDFFF8B51C4D06460024A86DC000BF
:102B400002D5FEF7C3FB0DE0A86D40F08050A865EC
:102B5000A86D00F080500090FEF7B8FBA96D21F041
:102B60008051A965B0F5007F04D0802E07D94FF0C1
:102B700003040AE0802E08D9A02E01D804E001D178
:102B8000022402E0702E00D101240848016821F0DF
:102B9000070121430160006800F00700A04201D056
:102BA0000120F8BD0020F8BD0010024000200240C6
:102BB0007047FEF7D3BA00000D48016841F4700178
:102BC00001600C48016841F0010101600021816051
:102BD0000268094B1A4002608214C260026822F443
:102BE0008022026081610249C00380390860704719
:102BF00088ED00E000100240FFFFF6EA10B504483F
:102C0000FFF72DF903480168491C016010BD000061
:102C100060000020000000202DE9F0470268264BEC
:102C2000264D274E274F284C4FF0804A984209D016
:102C3000504507D0A84205D0B04203D0B84201D0D9
:102C4000A04204D122F0700C4A6842EA0C02DFF87C
:102C50007CC0DFF87C80DFF87C9098420FD0504534
:102C60000DD0A8420BD0B04209D0B84207D0A04244
:102C700005D0604503D0404501D0484503D122F43A
:102C80004075CA682A434D6922F080022A430260D7
:102C90008A68C2620A688262984207D0A04205D060
:102CA000604503D0404501D0484501D10969016321
:102CB00001214161BDE8F087002C01400004004083
:102CC00000080040000C004000340140004001407A
:102CD000004401400048014090F82410C90706D084
:102CE00001684A68836A22F400321A434A6090F805
:102CF0002410890706D501684A68C36A22F4803225
:102D00001A434A6090F82410490706D501684A68BA
:102D1000036B22F480221A434A6090F824100907BA
:102D200006D501684A68436B22F400421A434A60A0
:102D300090F82410C90606D501688A68836B22F4CE
:102D400080521A438A6090F82410890606D50168DB
:102D50008A68C36B22F400521A438A6090F82410E8
:102D6000490611D501684A68036C22F480121A439F
:102D70004A60016CB1F5801F06D101684A68436C56
:102D800022F4C0021A434A6090F82410090606D5BE
:102D900001684A68806C22F4002202434A6070474E
:102DA000F8B5002604464667FDF726FE054620686E
:102DB00000686FF07E47000708D52B4600224FF4CD
:102DC00000112046009700F069F960B9206800689A
:102DD00040070AD52B4600224FF480012046009779
:102DE00000F05CF908B10320F8BD202084F87100E0
:102DF00084F8720084F870600020F8BD2DE9F0417D
:102E00000446016880682369E669184363691025F0
:102E1000002733431843954A0B68954E33400343CC
:102E20000B6020684168E36821F440511943416018
:102E30002168A069914201D0236A18438B6823F46A
:102E4000306303438B608B4B21688B4899420DD1D3
:102E5000D0F8880010F0030006D001285AD00228CC
:102E600056D0032859D157E0012556E0834B9942AB
:102E70000BD1D0F8880010F00C0047D0042849D0BE
:102E8000082845D00C2848D146E07D4B99420BD10B
:102E9000D0F8880010F0300038D010283AD0202820
:102EA00036D0302839D137E0764B99420BD1D0F863
:102EB000880010F0C00029D040282BD0802827D0CF
:102EC000C0282AD128E0704B99420ED1D0F8880052
:102ED00010F440701AD0B0F5807F1BD0B0F5007FA1
:102EE00016D0B0F5407F18D116E0914215D1D0F838
:102EF000880010F4406009D0B0F5806F0AD0B0F5BA
:102F0000006F05D0B0F5406F07D105E0002504E063
:102F1000022502E0042500E008255C4B00264FF462
:102F2000004091423DD135B1022D07D0042D07D08C
:102F3000082D10D107E0FEF735FC03E0184602E04B
:102F4000FEF754FCA8B3626802EB4201814202D84A
:102F5000B0EB023F01D9012775E0DFF834815DB1A4
:102F6000022D0CD0042D13D0082DF4D150082905C2
:102F7000401846F1000105E0FEF714FC0AE0500895
:102F80004449F5E70023FDF71BF9A0F5407156E031
:102F9000FEF72CFC6268010E0302500818187141FC
:102FA000F0E7E1694FF6EF7881422FD1092DD2D2B7
:102FB00000E048E0DFE805F00609200523050505E7
:102FC0002600C8E7FEF7EEFB01E0FEF7FDFB41003F
:102FD000D4F8040001EB5001B1FBF0F080B2A0F195
:102FE00010014145B7D84FF6F0710140C0F34200DF
:102FF00001432068C16026E027496068EAE7FEF7E0
:10300000F5FBE4E74FF480316068E3E7092DA2D2D5
:10301000DFE805F006091E052205050525009AE7EB
:10302000FEF7C0FB01E0FEF7CFFB0146606801EB55
:10303000500100BFB1FBF0F080B2A0F1100141459A
:1030400089D82168C860266638466666BDE8F08182
:10305000606803EB5001EDE7FEF7C8FBE5E7616848
:1030600000EB5100B0FBF1F0E6E70000008000400B
:10307000F369FFEF003801400010024000440040B7
:1030800000480040004C0040005000400024F40084
:10309000FFFC0F00000024F40048E8012DE9F04196
:1030A000984617460E460446069D1DE0681C1BD038
:1030B0002DB1FDF7A1FCA0EB0800A84214D92068AF
:1030C000016821F4D07101602068816821F001015C
:1030D0008160202084F8710084F87200002084F858
:1030E00070000320BDE8F0812068C06936EA000066
:1030F00004D00020B842D9D00020F3E70120F9E73E
:10310000FEE7000030B587B014216846FDF7A5F84A
:103110001648C16C41F01001C164C16C01F010018E
:103120000591C16C41F00801C164C16C01F0080156
:103130000591C16C41F00201C164C06C0C4D00F0FE
:1031400002004FF480740590002221462846FDF7C6
:103150004EFC012000210094CDE901010391694654
:103160002846FDF75FFB07B030BD000000100240AD
:10317000001000480E4810B50C49016040F614617B
:10318000416000210122C0E90212016141618161B7
:10319000C1610162FDF7CAFC00210548FDF732FC60
:1031A000BDE8104000210248FDF757BC0054004024
:1031B0001400002010B5B8B0442122A8FDF74DF846
:1031C000142133A8FDF749F888216846FDF745F832
:1031D0001020229000240120CDE9280460202A90AC
:1031E0002C9422A8FEF754FB0F20CDE9330435942C
:1031F0003694002133A83794FEF748FA0F94422002
:10320000149400906846FEF769F84FF40070FEF7DA
:1032100029F838B010BD00000948084901604FF492
:10322000E1314160002181600C22C160C0E90412DB
:103230008161C16101624162FEF7D7BE0044004076
:10324000A00000200FB4012330B5A5B004466420CF
:103250000090207B844A410029A8FDF7EFFD0A2059
:10326000FDF7D1FA2A2229A911A8FCF7DDFFBDF844
:10327000CE00ADF86E0034981C9035981D9036A99C
:103280000D220D461EA8FCF7CFFF9DF8E5008DF836
:1032900085009DF8E6008DF886003A9822903B98CC
:1032A0002390442213A96846FCF7BEFFDDE91123F1
:1032B000A221204600F00AF920802A2229A911A87B
:1032C000FCF7B2FFBDF8CE00ADF86E0034981C904C
:1032D00035981D900D2229461EA8FCF7A5FF9DF8E4
:1032E000E5008DF885009DF8E6008DF886003A9897
:1032F00022903B982390442213A96846FCF794FF40
:10330000DDE91123A421204600F0E0F860802A22A4
:1033100029A911A8FCF788FFBDF8CE00ADF86E0012
:1033200034981C9035981D900D2229461EA8FCF754
:103330007BFF9DF8E5008DF885009DF8E6008DF88F
:1033400086003A9822903B982390442213A968461D
:10335000FCF76AFFDDE91123A621204600F0B6F84C
:10336000A0802A2229A911A8FCF75EFFBDF8CE0093
:10337000ADF86E0034981C9035981D900D222946AA
:103380001EA8FCF751FF9DF8E5008DF885009DF81B
:10339000E6008DF886003A9822903B9823904422CC
:1033A00013A96846FCF740FFDDE91123A821204658
:1033B00000F08CF8E0802A2229A911A8FCF734FF3C
:1033C000BDF8CE00ADF86E0034981C9035981D9075
:1033D0000D2229461EA8FCF727FF9DF8E5008DF871
:1033E00085009DF8E6008DF886003A9822903B987B
:1033F0002390442213A96846FCF716FFDDE9112348
:10340000AA21204600F062F820812A2229A911A8C9
:10341000FCF70AFFBDF8CE00ADF86E0034981C90A2
:1034200035981D900D2229461EA8FCF7FDFE9DF83B
:10343000E5008DF885009DF8E6008DF886003A9845
:1034400022903B982390442213A96846FCF7ECFE97
:10345000DDE91123AC21204600F038F8608125B069
:1034600030BC5DF814FB00000F0000200FB47CB5E9
:10347000642504460095007B01234100124A07A8F9
:10348000FDF7DCFC0A20FDF7BEF90095207B0E4A13
:1034900041000123921C07A8FDF7D0FC0095207B7A
:1034A0000323410001AA07A8FDF732FC9DF80400A0
:1034B0009DF80510000440EA01209DF806107CBC30
:1034C00008435DF814FB00000C0000200FB41FB58A
:1034D0006424022303AA8DE81C00007B0A464000F6
:1034E0000146012308A8FDF73FFDBDF80C0004B01C
:1034F00040BA10BC00B25DF814FB00000FB47CB5FC
:10350000642504460095007B01234100124A07A868
:10351000FDF794FC0A20FDF776F90095207B0E4A12
:1035200041000123521C07A8FDF788FC0095207B71
:103530000323410001AA07A8FDF7EAFB9DF8040058
:103540009DF80510000440EA01209DF806107CBC9F
:1035500008435DF814FB00000D0000200FB42A2280
:103560002DE9F04FA5B0044631A910A8FCF75CFE88
:10357000BDF8EE00ADF86A003C981B903D981C9099
:103580003EA90D220D461DA8FCF74EFE9DF8050133
:103590008DF881009DF806018DF8820042982190F7
:1035A00043982290402213A96846FCF73DFE10AED6
:1035B000204696E80E00FFF759FF23902A2231A9F2
:1035C00010A8FCF731FEBDF8EE00ADF86A003C989B
:1035D0001B903D981C900D2229461DA8FCF724FE47
:1035E0009DF805018DF881009DF806018DF8820097
:1035F0004298219043982290402213A96846FCF7F4
:1036000013FE96E80E002046FFF778FF21896389B4
:10361000A0EB0122A3FB02564FF0000909FB026157
:10362000D01703FB0011E6884B02A6FB02C843EA51
:10363000D55165884FF4FA63C9184FEA15434FEA2C
:10364000054709FB028506FB00564FEADC1545EAF3
:1036500046657D1943EBE613CDE90053A68825881E
:10366000A6FB027C09FB02C406FB00444FEA55435B
:103670004FEA17204FEAC53540EA046015EB000E0B
:1036800043EB242BB1F5FA6F05DBCA465246D1460F
:103690005346504645E082FB02204300344843EA4B
:1036A000D27ACC170A18A2FB025344F1FF3000FB78
:1036B000023302FB00360522A5FB023706FB02722D
:1036C000002005FB002042104FEA33094FEA930324
:1036D00043EA807340F2DC554FEAA000E94220DA69
:1036E0004D1944F10006A5FB054706FB057705FBD0
:1036F00006750726A4FB06C805FB0686002704FB03
:1037000007671CEB09097A410B27A4FB07C805FBD7
:103710000785002604FB065464104FEA3C05EB18AD
:103720006041B1EB0A05DDE90061B6EB090461EB2C
:103730000201BEEB03036BEB000223980026A0FB03
:10374000037C06FB03C300FB02307A0D42EAC02271
:103750004015121B60EB0100410441EAD230309960
:1037600008602F98056025B0BDE8F00F5DF814FBE8
:1037700030F8FFFF017370470FB4084B10B504A970
:1037800002AA039800F08CFB044602A9002000F076
:1037900021FF204610BC5DF814FB0000D545000851
:1037A00070B5D94B00242DED020B2DED108BDDE90A
:1037B0001010984205DA20F000429A4201D809D14F
:1037C00041B19DED100B00F0CDB902B0BDE87040E5
:1037D00000F06EBAB0F5801F26DA11430BD0002836
:1037E00013DA012000F090FA00F0C2B902B0BDE88F
:1037F000704000F069BA022000F086FA00F040FA4A
:1038000051EC100B81F000419EE06FF035049FED0C
:10381000C00B53EC102B9DED100B51EC100BFCF773
:10382000D6FDCDE91001084604EB2051C0F3130486
:10383000B948A1F2FF31204400F4801080F07F628B
:1038400082F04052224301EB20559FEDB50B1192BF
:1038500053EC102B9DED100B51EC100BFCF7A9FD58
:1038600041EC180BA01CC0F313009FEDAFDB9FEDE4
:10387000B0EBB14E7E4403286CD296ED000B51ECB8
:10388000180B53EC102BFCF753FF1DD1002D01BF7B
:1038900096ED000BBDEC108B02B070BD2846FCF716
:1038A0007AFE41EC180B53EC1D2BFCF790FD41EC1C
:1038B000190B53EC1E2B51EC180BFCF788FD53EC45
:1038C000192BFCF7D5FC3FE09FED9D0B51EC180B3D
:1038D00053EC102BFCF77BFD9FED9B1B53EC112B46
:1038E000FCF76AFD41EC190B53EC182B51EC180B4B
:1038F000FCF76DFD53EC192BFCF769FD41EC190B3E
:10390000002D04BF53EC192B51EC180B1AD028468C
:10391000FCF741FE41EC1A0B53EC1D2BFCF757FD55
:1039200053EC192BFCF748FD53EC182BFCF741FD29
:1039300041EC180B53EC1E2B51EC1A0BFCF747FD16
:1039400053EC182BFCF735FD00F018B902B041EC30
:10395000100B70BD9FED7E0B51EC180B53EC102B30
:10396000FCF786FC41EC100B51EC180B53EC102BC0
:10397000FCF7A2FD41EC190B2846FCF70CFE41ECCC
:103980001B0B53EC192B51EC190BFCF720FD41ECF0
:103990001A0B714853EC1A2B261851EC1A0BFCF732
:1039A00016FD41EC1F0B6D48C4F1510404F5D724FA
:1039B000B0EE4F0AF0EE6F0A0321784400F0E4F80D
:1039C00053EC1F2B51EC100BFCF701FD41EC1C0BD1
:1039D0006348B0EE4F0AF0EE6F0A0421784400F01D
:1039E000D3F853EC1A2B51EC100BFCF7F0FC3443DA
:1039F00053EC1C2BFCF73CFC41EC1C0B002C4CDD6D
:103A00009FED510B51EC180B53EC102BFCF7DFFC26
:103A100053EC182BFCF7DBFC41EC1A0B55B353ECC1
:103A20001D2B51EC1B0BFCF7D2FC41EC1D0B53EC96
:103A30001C2B51EC1A0BFCF71BFC53EC192BFCF75D
:103A4000C6FC53EC1D2BFCF713FC53EC1A2BFCF7B4
:103A5000B3FC53EC182BFCF7ACFC41EC180B53EC0B
:103A60001E2B51EC1B0BFCF7B2FC53EC182BFCF794
:103A7000A0FC69E753EC1C2B51EC1A0BFCF7F8FB8C
:103A800053EC192BFCF7A3FC53EC1A2BFCF794FC1A
:103A900053EC182BFCF790FC56E735B353EC1D2B79
:103AA00051EC1B0BFCF793FC41EC1A0B53EC1C2B59
:103AB00051EC180BFCF77DFC53EC192BFCF787FC41
:103AC00053EC1A2BFCF775FC53EC182BFCF771FC2C
:103AD00041EC180B53EC1E2B51EC1B0BFCF777FC45
:103AE00053EC182BFCF765FC2EE753EC1C2B51EC28
:103AF000180BFCF75EFC53EC192BFCF768FC53EC3D
:103B0000182BFCF759FC1FE70000F07F00000000B5
:103B10000000000000005043645F09000000000046
:103B2000000000000000F03F763C7935EF39EA3DB7
:103B30000000E0FE422EE63FF80F0000000000000B
:103B4000555555555555D53F000000000000E03F44
:103B5000000000000000004086EBF9FF7A0E000034
:103B6000700E0000BDEC088BBDEC08CBFFF72DBE3E
:103B7000BDEC088BBDEC08CBFFF738BEBDEC088B65
:103B8000BDEC08CBFFF7E2BE70B504462DED028B0D
:103B90004D1E00EBC500B0EE408AF0EE608A90ED5D
:103BA000000B35F0060017D053EC182B51EC100B1E
:103BB000FCF70DFC41EC100B6D1E04EBC50090ED05
:103BC000001B51EC100B53EC112BFCF751FB41EC9B
:103BD000100B35F00600E7D1022D36D0042D1CD095
:103BE000062D1CBFBDEC028B70BD53EC182B51ECA5
:103BF000100BFCF7ECFB94ED0A1B53EC112BFCF7BC
:103C000037FB53EC182BFCF7E2FB94ED081B53EC4D
:103C1000112BFCF72DFB41EC100B53EC182B51EC46
:103C2000100BFCF7D4FB94ED061B53EC112BFCF7A7
:103C30001FFB53EC182BFCF7CAFB94ED040B53EC61
:103C4000102BFCF715FB41EC100B53EC182B51EC2F
:103C5000100BFCF7BCFB94ED021B53EC112BFCF793
:103C600007FB53EC182BFCF7B2FB94ED001B53EC55
:103C7000112BFCF7FDFABDEC028B41EC100B70BD73
:103C80009FED070B10B553EC102B9FED070B51EC7C
:103C9000100BFCF711FC41EC100B10BD00000000F4
:103CA0000000000000000000000000000000F03FE5
:103CB00010B553EC102B51EC100BFCF7D9FA41EC7A
:103CC000100B10BD000000009FED050B10B553EC6C
:103CD000102B51EC100BFCF7EFFB41EC100B10BD5F
:103CE000000000000000000002E008C8121F08C128
:103CF000002AFAD170477047002001E001C1121F6D
:103D0000002AFBD17047000001490860704700009D
:103D1000100000202DE9FF5F82B00021DDE90430B2
:103D2000020DDDF840B0034318D044F61050A2F263
:103D3000FF3242431514119801281FD0A5EB0B0048
:103D4000401C5FEA000A4FF000064E4FDFF8389142
:103D5000B046504615D5CAF1000413E0119801246D
:103D60004AA3012801D16FEA0B010298119AC0E918
:103D70000031C0E9024206B000F08EB8CBF100007D
:103D8000DFE704460021404A491842EB0450CDE9E0
:103D9000001012E0E00707D032463B464046494655
:103DA000FCF715FB8046894632463B4610461946CD
:103DB000FCF70DFB06460F466410002CEAD1DDE946
:103DC0000401DDE90023BAF1000F06DAFCF7FFFA7F
:103DD00042464B46FCF7FBFA05E0FCF76DFB42461A
:103DE0004B46FCF769FB04460E460022284BFCF7C5
:103DF000B7FC03D84FF0FF30014607E00022254B07
:103E000020463146FCF734FAFCF77AFC102409E02E
:103E1000002C0ADB0A220023FCF7D2F9039B303284
:103E20001A55641E50EA0102F2D1641C039AC4F1CF
:103E300011031444119A012A03D0012208430DD121
:103E40000AE0084304D000204FF0110B119072E7F4
:103E5000A3EB0B056D1E0DE05B4504DD4FF000028A
:103E600005F1010504E003DA4FF00002A5F10105B8
:103E7000002AECD002981199C0E90231C0E900454E
:103E800079E70000000014400000F03F300000001F
:103E90000000F0430000E03F30BCBDE8C09F0000E0
:103EA0002DE9FF4F95B09B468946064600250FE257
:103EB000252877D100242746F84A0121059400E0FF
:103EC000044316F8013F203B01FA03F01042F7D1FA
:103ED00030782A2811D06FF02F033078A0F130020B
:103EE000092A16D8059A44F0020402EB820203EB79
:103EF00042021044761C0590EFE759F8042B059216
:103F0000002A03DA504244F40054059044F00204BD
:103F1000761C30782E2816D116F8010F44F00404D0
:103F20002A280DD06FF02F023078A0F13003092B32
:103F300009D807EB870302EB4303C718761CF3E7A6
:103F400059F8047B761C30786C280FD006DC4C289E
:103F500017D068280DD06A2814D104E0742810D036
:103F60007A280FD10DE044F400140AE044F48014E0
:103F700001E044F440147278824202D104F58014C6
:103F8000761C761C307866280BD013DC582877D046
:103F900009DC002875D04528F6D04628F4D04728FB
:103FA0001AD19DE118E0632835D0642879D06528BE
:103FB00012D195E1702873D008DC6728F1D0692808
:103FC0006FD06E280DD06F2806D1B5E073282CD0A5
:103FD000752875D0782874D05A46179990476D1C6B
:103FE00075E1C4F30250022809D003280DD0D9F896
:103FF000001004280DD00D6009F1040967E1D9F81B
:104000000010EA17C1E90052F6E7D9F800100D8058
:10401000F2E70D70F0E719F8041B8DF8001000208E
:104020008DF80100EA46012003E059F804AB4FF097
:10403000FF3061074FF0000102D40DE008F10101EB
:104040008846B9420FDA8045F8DB1AF808100029D3
:10405000F4D108E008F1010188468142FADB1AF840
:1040600008100029F6D105985B46A0EB0807214609
:104070003846179A00F097FA284400EB080507E045
:104080004DE029E10DE01AF8010B5A4617999047C7
:10409000B8F10108F7D25B4621463846179A13E17A
:1040A00042E00A220092C4F302524FF0000A022AB0
:1040B00008D059F804CB032A4FEAEC710AD00DE07E
:1040C00029E02AE009F1070121F00702F2E802C124
:1040D000914609E00FFA8CFC4FEAEC71042A03D1F7
:1040E0004FFA8CFC4FEAEC71002907DA0A460021EE
:1040F000DCF1000C61EB02012D2202E0220504D567
:104100002B228DF80420012203E0E20701D02022B7
:10411000F7E7904659E00A2102E010220DE0102155
:104120004FF0000A00910BE010224FF0000A44F01B
:1041300004040827009203E008224FF0000A0092CE
:10414000C4F30252022A05D059F804CB0021032AF5
:1041500008D009E009F1070121F00702F2E802C1E5
:10416000914605E01FFA8CFC042A01D10CF0FF0CEB
:104170004FF00008220728D5702806D0009B83F056
:10418000100353EA0A0305D00EE040228DF8042004
:10419000012208E05CEA010206D030228DF80420FA
:1041A0008DF8050002229046009B83F0080353EA35
:1041B0000A030AD15CEA010201D1620705D5302267
:1041C0008DF804204FF001087F1E582804D034A039
:1041D00003900EA802900DE036A0F9E75346604622
:1041E000009AFBF7EDFF84460398825C0298401E1C
:1041F000029002705CEA0100F0D1029806A9081A48
:1042000000F1200A600702D524F4803400E0012781
:10421000574502DDA7EB0A0000E0002000EB0A0191
:10422000009005984144401A0590E00306D45B468F
:104230002146179A059800F0B6F90544002706E0D4
:1042400001A85A46C05D179990476D1C7F1C4745D1
:10425000F6DBE0030CD55B462146179A059800F083
:10426000A2F9054404E030205A46179990476D1C86
:104270000099481E00900029F5DC08E00298029998
:104280005A460078491C0291179990476D1CBAF163
:104290000001AAF1010AF1DC65E100000928010032
:1042A00030313233343536373839616263646566AC
:1042B000000000003031323334353637383941426E
:1042C000434445460000000000F05BF90544761CBD
:1042D000307800287FF4ECAD19B0284600F04EB9D4
:1042E000620700D4062709F1070222F0070CFCE858
:1042F0000223E14603F000485FEA080C02D00FF207
:10430000702C0DE05FEA045C02D50FF2682C07E028
:104310005FEAC47C02D00FF2602C01E0AFF2700CB7
:104320004FF0FF3823F00043CDF850C065280CD083
:1043300006DC452809D046281DD047283DD13DE060
:10434000662818D067287ED138E00021112F01DBC4
:10435000112000E0781CCDE9000106A90EA8FFF7A6
:10436000D9FCDDE90F010E9A03910021009207F1BB
:10437000010A04914DE04FF000400097CDE9011093
:1043800006A90EA8FFF7C6FCDDE90F0203920E9BFB
:1043900011990022DDF80CA00093049211B9791C48
:1043A00000EB010AB7EB0A0004D4C0F1FF3007F1BB
:1043B000010A0490AAEB0700019044E0012F00DA03
:1043C00001270021112F01DD112000E03846CDE941
:1043D000000106A90EA8FFF79DFCDDE90F010E9A6A
:1043E0000391002104910092BA4621070CD403994D
:1043F000514500DA8A46BAF1010F05DD009AAAF1AB
:104400000101515C302908D0B84202DA10F1040FE2
:1044100006DA0121CDE9011015E0AAF10101E9E771
:10442000002805DC049901440491AAEB000102E094
:10443000411C514500DD8A460499401A401C0190F8
:104440004FF000400290200704D40198504501DB52
:10445000CDF8048000208DF84F0002980DF14F0731
:10446000B0F1004F25D02B200E9002984FF002089B
:1044700000280CDA404202902D200E9007E00A211D
:104480000298FCF799F83031029007F8011DB8F155
:104490000001A8F10108F2DC02980028EFD1791E92
:1044A0000E980870307800F0200040F0450007F8C2
:1044B000020D12A8C01B00F107081498007800B183
:1044C000012000EB0A01019801EBE07105984144DD
:1044D000401A401E0590E00306D45B462146179A19
:1044E000059800F060F805441498007818B15A4611
:1044F000179990476D1CE00324D55B462146179A17
:10450000059800F050F805441CE00498002807DBEB
:10451000DDE90301884203DD0098405C179901E062
:10452000179930205A469047049805F10105401C20
:1045300004900198401E019004D12E205A461799EC
:1045400090476D1CBAF10001AAF1010ADDDC05E01B
:1045500017F8010B5A46179990476D1CB8F10001E6
:10456000A8F10108F4DC5B462146179A0598ABE6F2
:104570002D0000002B0000002000000030BCBDE832
:10458000C08F2DE9F041044600251E4617468804D9
:1045900004D405E039462020B0476D1C641EF9D5CF
:1045A0002846BDE8F0812DE9F041044600251E466D
:1045B0009046C80301D5302700E02027880404D5A1
:1045C00005E041463846B0476D1C641EF9D52846C3
:1045D000BDE8F0810A68531C0B6010707047000042
:1045E0002DED048BC0B077213BA8FFF7C3F8502115
:1045F00025A8FBF732FE002439943A94FCF7B6FD67
:10460000FEF7D8FDFEF77EFDFEF7B4FDFEF704FED3
:10461000664800940194644902940160C721C0E98E
:1046200001148461C160FDF7ADFB20200090694654
:1046300002945E48FDF776FB5C48FDF7DDFB5B48C6
:10464000FDF7F4FB59492A224C3910A8FBF7ECFD81
:10465000564C4C3C608DADF86A00E06A1B90206BB4
:104660001C9004F134010D220D461DA8FBF7DCFD62
:1046700094F841008DF8810094F842008DF8820092
:10468000606C2190A06C2290402213A96846FBF731
:10469000CBFD10A890E80E003BA8FEF7D3FD00BFAD
:1046A0009DF8F8006423410040480A224C38FCF78A
:1046B00099FA20B13EA125A8FFF75EF8F0E73B4943
:1046C0002A224C3912A8FBF7AFFD608DADF87200BD
:1046D000E06A1D90206B1E900D2229461FA8FBF753
:1046E000A3FD94F841008DF8890094F842008DF8FC
:1046F0008A00606C2390A06C2490482213A968461D
:10470000FBF792FD3AAA39A93BA8129BFEF726FFB8
:104710003A98FBF740FF9FED298B53EC182BFBF7E2
:10472000CBFE41EC100B53EC102B9FED260B51EC04
:10473000100BFBF7C1FE41EC100BFFF731F8B0EEA8
:10474000409AF0EE609A3998FBF725FF53EC182B4E
:10475000FBF7B2FE9FED1D1B53EC112BFBF737FE51
:104760009FED1C1B53EC112BFBF782FD9FED1B1BD8
:1047700053EC112BFBF72BFE53EC192BFBF727FE09
:1047800041EC100B17A153EC102B25A8FEF7F4FFFA
:1047900006484FF6FF73102225A94030FDF78CFC28
:1047A0006420FCF730F87BE7001000406000002038
:1047B000493243206572726F7200000000000000F1
:1047C000000059400000000000AA8F400820B58971
:1047D00093FB6D3F000000000000F03F0000000070
:1047E00000F8D140256C660D0A00000000000000B2
:1047F000000000000102030406070809A08601006A
:10480000400D0300801A060000350C0040420F00E6
:1048100080841E0000093D0000127A000024F4008C
:1048200000366E010048E801006CDC020000000068
:10483000010203040000000004FA97999999D93FF6
:10484000AF788E1DC571CC3F9FC678D0099AC33F03
:10485000935555555555E53F599322942449D23FD8
:10486000DE03CB966446C73F44523EDF12F1C23F9F
:104870000000000000000000984800080000002030
:1048800014000000E83C0008AC48000814000020B8
:1048900004050000F83C00080000000000000000D3
:0C48A00000093D004858001E0000000008
:040000050800018965
:00000001FF
